:100000000C942A000C9447000C9447000C94470071
:100010000C9447000C9447000C9447000C94470044
:100020000C9447000C9447000C9447000C94470034
:100030000C9447000C9447000C9447000C94470024
:100040000C9447000C9447000C9447000C94470014
:100050000C94470011241FBECFE5D4E0DEBFCDBF16
:1000600010E0A0E6B0E0EEE9F9E002C005900D92E4
:10007000A436B107D9F710E0A4E6B0E001C01D92A4
:10008000A636B107E1F70E9463010C94CD040C94ED
:10009000000087EC87B987E886B9089590E297B9A0
:1000A00097B1982B97B9369A01C00000349BFDCFC9
:1000B00024B135B1C9010895AC013091640020E04C
:1000C00002C02F5F3AE0822F90E084179507C8F3B3
:1000D0003093640020936500089584E690E00E94C8
:1000E0005C00AA9A84E690E00E945C00AA980895B9
:1000F0001F93182FAA9895B385B382709870892B97
:10010000912F907F892B85BB0E946D0095B385B39D
:1001100082709870892B1295107F812B85BB0E946D
:100120006D001F9108951F93182F95B385B38270AA
:100130009870892B912F907F892B85BBA89A0E945C
:100140006D0095B385B382709870892B1295107FDE
:10015000812B85BBA89A0E946D001F910895EF9294
:10016000FF921F93CF93DF937C01AA9810E01FC0EA
:10017000103119F480EC0E94780085B395B3927029
:100180008870982B8881807F982B95BBA89A0E94B5
:100190006D0085B395B392708870982B8881829595
:1001A000807F892B85BBA89A0E946D001F5FE701A5
:1001B000C10FD11D88818823D9F6DF91CF911F917E
:1001C000FF90EF90089580580E9478000895805421
:1001D0000E9478000895893029F480E20E949300FB
:1001E00080E206C08A3021F480E00E94E700089592
:1001F0000E9493000895EF92FF920F931F93182F80
:1002000064E60E94C201482F282F30E08CE99FEF5E
:10021000289F7001299FF00C389FF00C1124C70112
:10022000810F911D6AE070E00E94CE01062F842F9D
:10023000805D0E94EB00802F805D0E94EB00105DCE
:100240001E0D86EF9FEF089F002D1124802F810F38
:100250000E94EB001F910F91FF90EF9008950AC04C
:1002600020E030E000002F5F3F4F4CE02C3C340793
:10027000C9F701970097A1F708958FEF84BB8FE02E
:1002800090E00E942F0183E00E9478008DE290E0D0
:100290000E942F0182E00E9478008FE090E00E948F
:1002A0002F01AA9881E00E9478008FE00E947800D8
:1002B00082E00E94780080E80E9478008FE090E061
:1002C0000E942F0108951F9387EC87B987E886B9AC
:1002D0000E943D0180E00E944E00182F81E00E94A4
:1002E000E300812F0E94FB0081E00E944E00182F46
:1002F00084E00E94E300812F0E94FB0082E00E94C4
:100300004E00182F87E00E94E300812F0E94FB001F
:10031000E1CF0F931F93DF93CF93CDB7DEB72A972B
:100320000FB6F894DEBF0FBECDBF00D000D000D016
:10033000EDB7FEB731968E010F5F1F4FADB7BEB759
:1003400012961C930E93119720E630E0338322839C
:10035000958384830E94F5018DB79EB706960FB6EC
:10036000F8949EBF0FBE8DBFC8010E94AF002A96B1
:100370000FB6F894DEBF0FBECDBFCF91DF911F91B6
:100380000F910895991B79E004C0991F961708F002
:10039000961B881F7A95C9F78095089597FB092EBB
:1003A00007260AD077FD04D00CD006D000201AF41E
:1003B000709561957F4F0895F6F7909581959F4FC1
:1003C0000895AA1BBB1B51E107C0AA1FBB1FA6179C
:1003D000B70710F0A61BB70B881F991F5A95A9F7EE
:1003E00080959095BC01CD010895AEE0B0E0EBEFB3
:1003F000F1E00C94A4040D891E8986E08C831A8395
:1004000009838FEF9FE79E838D839E01275E3F4F79
:10041000CE0101966F89788DA9010E9419022F8162
:100420003885020F131FF80110822E96E4E00C9419
:10043000C004ABE0B0E0EFE1F2E00C9496043C01C4
:100440002B015A01FC0117821682838181FD03C0B2
:100450006FEF7FEFC6C19AE0892E1E010894211C20
:10046000311CF3012381F20123FD859123FF81914A
:100470002F01882309F4B2C1853239F423FD859117
:1004800023FF81912F01853229F490E0B3010E946E
:100490000C04E7CF982FFF24EE249924FFE1FF15E9
:1004A000D0F09B3269F09C3228F4903259F09332AC
:1004B00091F40EC09D3249F0903369F441E024C0BC
:1004C00052E0F52A84E0F82A28C098E0F92A25C0ED
:1004D000E0E1FE2A22C0F7FC29C0892F80538A3030
:1004E00070F4F6FE05C0989C902C1124980E15C04F
:1004F000E89CE02C1124E80EF0E2FF2A0EC09E32A8
:1005000029F4F6FC6BC140E4F42A07C09C3619F4C8
:1005100050E8F52A02C0983649F4F20123FD95917E
:1005200023FF91912F01992309F0B8CF892F85548A
:10053000833018F08052833038F444E050E0A40E49
:10054000B51E5FE359830FC0933631F0933779F0CE
:10055000933509F056C020C0F5018081898342E0BF
:1005600050E0A40EB51E610101E010E012C0F501DB
:10057000C080D180F6FC03C06FEF7FEF02C0692D11
:1005800070E042E050E0A40EB51EC6010E940104D6
:100590008C015FE7F52214C0F501C080D180F6FC24
:1005A00003C06FEF7FEF02C0692D70E042E050E0C2
:1005B000A40EB51EC6010E94F6038C0150E8F52A70
:1005C000F3FE07C01AC080E290E0B3010E940C0461
:1005D000EA948E2D90E008171907A8F30EC0F601D3
:1005E000F7FC8591F7FE81916F0190E0B3010E94C5
:1005F0000C04E110EA94015010400115110579F73F
:10060000EAC0943611F0993669F5F7FE08C0F50195
:10061000208131814281538184E090E00AC0F5015C
:10062000808191819C01442737FD4095542F82E0C1
:1006300090E0A80EB91E9FE6F92257FF09C0509519
:100640004095309521953F4F4F4F5F4FE0E8FE2A90
:10065000CA01B901A1012AE030E00E943804D82E75
:10066000D21840C0953729F41F2D1F7E2AE030E0B4
:100670001DC01F2D197F9F3661F0903720F49835EB
:1006800009F0ACC00FC0903739F0983709F0A6C018
:1006900004C028E030E00AC0106114FD146020E1BD
:1006A00030E004C014FD166020E132E017FF08C0FE
:1006B000F501608171818281938144E050E008C03E
:1006C000F50180819181BC0180E090E042E050E042
:1006D000A40EB51EA1010E943804D82ED2188FE7AF
:1006E000F82EF122F6FE0BC05EEFF522D91438F495
:1006F000F4FE07C0F2FC05C08FEEF82202C01D2DEB
:1007000001C0192DF4FE0DC0FE01ED0DF11D80811B
:10071000803319F499EEF92208C01F5FF2FE05C07C
:1007200003C08F2D867809F01F5F0F2DF3FC14C0D6
:10073000F0FE0FC01E1510F09D2C0BC09D2C9E0CC2
:10074000911A1E2D06C080E290E0B3010E940C04B5
:100750001F5F1E15C0F304C01E1510F4E11A01C07E
:10076000EE2404FF0FC080E390E0B3010E940C046C
:1007700002FF1DC001FD03C088E790E00EC088E5C0
:1007800090E00BC0802F867891F001FF02C08BE2D1
:1007900001C080E2F7FC8DE290E0B3010E940C04FE
:1007A00006C080E390E0B3010E940C049A94D9142F
:1007B000C0F3DA94F101ED0DF11D808190E0B301F9
:1007C0000E940C04DD20A9F706C080E290E0B3018E
:1007D0000E940C04EA94EE20C1F743CEF301668137
:1007E0007781CB012B96E2E10C94B204FC010590D9
:1007F000615070400110D8F7809590958E0F9F1F23
:100800000895FC016150704001900110D8F7809567
:1008100090958E0F9F1F08950F931F93CF93DF9393
:100820008C01EB018B8181FF1BC082FF0DC02E81EB
:100830003F818C819D812817390764F4E881F98113
:100840000193F983E88306C0E885F985802F09952F
:10085000892B31F48E819F8101969F838E8302C004
:100860000FEF1FEFC801DF91CF911F910F910895F6
:10087000FA01AA27283051F1203181F1E8946F93D1
:100880006E7F6E5F7F4F8F4F9F4FAF4FB1E03ED077
:10089000B4E03CD0670F781F891F9A1FA11D680F15
:1008A000791F8A1F911DA11D6A0F711D811D911D48
:1008B000A11D20D009F468943F912AE0269F1124BD
:1008C0003019305D3193DEF6CF010895462F477021
:1008D000405D4193B3E00FD0C9F7F6CF462F4F707C
:1008E000405D4A3318F0495D31FD4052419302D0DA
:1008F000A9F7EACFB4E0A695979587957795679580
:10090000BA95C9F700976105710508959B01AC017F
:100910000A2E06945795479537952795BA95C9F7A6
:10092000620F731F841F951FA01D08952F923F9281
:100930004F925F926F927F928F929F92AF92BF92EF
:10094000CF92DF92EF92FF920F931F93CF93DF939B
:10095000CDB7DEB7CA1BDB0B0FB6F894DEBF0FBEF8
:10096000CDBF09942A88398848885F846E847D8445
:100970008C849B84AA84B984C884DF80EE80FD8047
:100980000C811B81AA81B981CE0FD11D0FB6F894BD
:0E099000DEBF0FBECDBFED010895F894FFCF7E
:04099E0025640000CC
:00000001FF
